S00D00004750494F322E73726563B6
S113000045C0000060C000005EC000005CC000008D
S11300105AC0000098C0000056C00000A7C00000ED
S113002052C0000050C000004EC000004CC0000090
S11300304AC0000048C0000046C0000044C00000A0
S113004042C0000040C000003EC000003CC00000B0
S11300503AC0000038C0000036C0000034C00000C0
S113006032C0000030C000002EC000002CC00000D0
S11300702AC0000028C0000026C0000024C00000E0
S113008022C0000020C000001EC0000011241FBEBA
S1130090CFEFD0E1DEBFCDBF11E0A0E0B1E0ECE8EE
S11300A0F1E000E00BBF02C007900D92AA30B10747
S11300B0D9F721E0AAE0B1E001C01D92AC30B2074B
S11300C0E1F702D061C09CCFCF93DF93CDB7DEB709
S11300D02A970FB6F894DEBF0FBECDBF8AE0E0E0EA
S11300E0F1E0DE01119601900D928A95E1F78FEF10
S11300F08ABB12B882E38ABF80E589BF88BF78943F
S113010080910A01E1E0F0E0EC0FFD1FE80FF11D22
S113011080818BBB80910B0181110BC080910A01FE
S11301208F5F80930A0180910A01823110F010924E
S11301300A012FE687E59BE0215080409040E1F7DB
S113014000C00000DDCF1F920F920FB60F92112452
S11301508F93F89481E080930B0110920A017894B4
S11301608F910F900FBE0F901F9018951F920F92B2
S11301700FB60F921124F89410920B0178940F90FB
S10F01800FBE0F901F901895F894FFCF4D
S10D018C3F065B4F666D7D277F6F11
S9030000FC
